{
  "contractName": "FlightSuretyData",
  "abi": [
    {
      "inputs": [
        {
          "internalType": "address",
          "name": "airline",
          "type": "address"
        },
        {
          "internalType": "string",
          "name": "flight",
          "type": "string"
        }
      ],
      "payable": false,
      "stateMutability": "nonpayable",
      "type": "constructor"
    },
    {
      "anonymous": false,
      "inputs": [
        {
          "indexed": true,
          "internalType": "address",
          "name": "airline",
          "type": "address"
        },
        {
          "indexed": false,
          "internalType": "uint256",
          "name": "value",
          "type": "uint256"
        }
      ],
      "name": "AirlineisFunded",
      "type": "event"
    },
    {
      "anonymous": false,
      "inputs": [
        {
          "indexed": true,
          "internalType": "address",
          "name": "airline",
          "type": "address"
        },
        {
          "indexed": false,
          "internalType": "string",
          "name": "flight",
          "type": "string"
        }
      ],
      "name": "AirlineisRegistered",
      "type": "event"
    },
    {
      "anonymous": false,
      "inputs": [
        {
          "indexed": true,
          "internalType": "address",
          "name": "customer",
          "type": "address"
        },
        {
          "indexed": false,
          "internalType": "uint256",
          "name": "value",
          "type": "uint256"
        }
      ],
      "name": "InsuranceFunded",
      "type": "event"
    },
    {
      "anonymous": false,
      "inputs": [
        {
          "indexed": true,
          "internalType": "address",
          "name": "account",
          "type": "address"
        },
        {
          "indexed": true,
          "internalType": "string",
          "name": "flight",
          "type": "string"
        }
      ],
      "name": "InsuranceFundsAccessible",
      "type": "event"
    },
    {
      "anonymous": false,
      "inputs": [
        {
          "indexed": true,
          "internalType": "address",
          "name": "customer",
          "type": "address"
        },
        {
          "indexed": false,
          "internalType": "uint256",
          "name": "value",
          "type": "uint256"
        }
      ],
      "name": "InsurancePaid",
      "type": "event"
    },
    {
      "anonymous": false,
      "inputs": [
        {
          "indexed": true,
          "internalType": "address",
          "name": "customer",
          "type": "address"
        },
        {
          "indexed": false,
          "internalType": "uint256",
          "name": "value",
          "type": "uint256"
        },
        {
          "indexed": false,
          "internalType": "address",
          "name": "airline",
          "type": "address"
        },
        {
          "indexed": false,
          "internalType": "string",
          "name": "flight",
          "type": "string"
        },
        {
          "indexed": false,
          "internalType": "uint256",
          "name": "timeStamp",
          "type": "uint256"
        }
      ],
      "name": "InsurancePurchased",
      "type": "event"
    },
    {
      "payable": true,
      "stateMutability": "payable",
      "type": "fallback"
    },
    {
      "constant": true,
      "inputs": [],
      "name": "isOperational",
      "outputs": [
        {
          "internalType": "bool",
          "name": "",
          "type": "bool"
        }
      ],
      "payable": false,
      "stateMutability": "view",
      "type": "function"
    },
    {
      "constant": false,
      "inputs": [
        {
          "internalType": "bool",
          "name": "mode",
          "type": "bool"
        }
      ],
      "name": "setOperatingStatus",
      "outputs": [],
      "payable": false,
      "stateMutability": "nonpayable",
      "type": "function"
    },
    {
      "constant": false,
      "inputs": [
        {
          "internalType": "address",
          "name": "contractAddress",
          "type": "address"
        }
      ],
      "name": "authorizeCaller",
      "outputs": [],
      "payable": false,
      "stateMutability": "nonpayable",
      "type": "function"
    },
    {
      "constant": false,
      "inputs": [
        {
          "internalType": "address",
          "name": "contractAddress",
          "type": "address"
        }
      ],
      "name": "deauthorizeCaller",
      "outputs": [],
      "payable": false,
      "stateMutability": "nonpayable",
      "type": "function"
    },
    {
      "constant": false,
      "inputs": [
        {
          "internalType": "address",
          "name": "airline",
          "type": "address"
        },
        {
          "internalType": "string",
          "name": "flight",
          "type": "string"
        }
      ],
      "name": "registerAirline",
      "outputs": [],
      "payable": false,
      "stateMutability": "nonpayable",
      "type": "function"
    },
    {
      "constant": false,
      "inputs": [
        {
          "internalType": "address payable",
          "name": "customer",
          "type": "address"
        },
        {
          "internalType": "address",
          "name": "airline",
          "type": "address"
        },
        {
          "internalType": "string",
          "name": "flight",
          "type": "string"
        },
        {
          "internalType": "uint256",
          "name": "timeStamp",
          "type": "uint256"
        }
      ],
      "name": "buy",
      "outputs": [],
      "payable": true,
      "stateMutability": "payable",
      "type": "function"
    },
    {
      "constant": false,
      "inputs": [
        {
          "internalType": "address",
          "name": "airline",
          "type": "address"
        },
        {
          "internalType": "string",
          "name": "flight",
          "type": "string"
        },
        {
          "internalType": "uint256",
          "name": "timeStamp",
          "type": "uint256"
        }
      ],
      "name": "creditCustomer",
      "outputs": [],
      "payable": false,
      "stateMutability": "nonpayable",
      "type": "function"
    },
    {
      "constant": false,
      "inputs": [
        {
          "internalType": "address payable",
          "name": "customer",
          "type": "address"
        }
      ],
      "name": "pay",
      "outputs": [],
      "payable": false,
      "stateMutability": "nonpayable",
      "type": "function"
    },
    {
      "constant": false,
      "inputs": [
        {
          "internalType": "address",
          "name": "airline",
          "type": "address"
        }
      ],
      "name": "fund",
      "outputs": [],
      "payable": true,
      "stateMutability": "payable",
      "type": "function"
    },
    {
      "constant": true,
      "inputs": [
        {
          "internalType": "address",
          "name": "airline",
          "type": "address"
        }
      ],
      "name": "AirlineisPaid",
      "outputs": [
        {
          "internalType": "bool",
          "name": "",
          "type": "bool"
        }
      ],
      "payable": false,
      "stateMutability": "view",
      "type": "function"
    },
    {
      "constant": true,
      "inputs": [
        {
          "internalType": "address",
          "name": "airline",
          "type": "address"
        }
      ],
      "name": "receivePay",
      "outputs": [
        {
          "internalType": "uint256",
          "name": "",
          "type": "uint256"
        }
      ],
      "payable": false,
      "stateMutability": "view",
      "type": "function"
    },
    {
      "constant": true,
      "inputs": [],
      "name": "receiveAirlineCount",
      "outputs": [
        {
          "internalType": "uint256",
          "name": "",
          "type": "uint256"
        }
      ],
      "payable": false,
      "stateMutability": "view",
      "type": "function"
    },
    {
      "constant": true,
      "inputs": [
        {
          "internalType": "address",
          "name": "airline",
          "type": "address"
        }
      ],
      "name": "isAirlineRegistered",
      "outputs": [
        {
          "internalType": "bool",
          "name": "",
          "type": "bool"
        }
      ],
      "payable": false,
      "stateMutability": "view",
      "type": "function"
    },
    {
      "constant": true,
      "inputs": [
        {
          "internalType": "address payable",
          "name": "customer",
          "type": "address"
        },
        {
          "internalType": "address",
          "name": "airline",
          "type": "address"
        },
        {
          "internalType": "string",
          "name": "flight",
          "type": "string"
        },
        {
          "internalType": "uint256",
          "name": "timeStamp",
          "type": "uint256"
        }
      ],
      "name": "receiveAmountPaidByCustomer",
      "outputs": [
        {
          "internalType": "uint256",
          "name": "valuePaid",
          "type": "uint256"
        }
      ],
      "payable": false,
      "stateMutability": "view",
      "type": "function"
    },
    {
      "constant": true,
      "inputs": [
        {
          "internalType": "address payable",
          "name": "customer",
          "type": "address"
        }
      ],
      "name": "receiveCustomerFunded",
      "outputs": [
        {
          "internalType": "uint256",
          "name": "value",
          "type": "uint256"
        }
      ],
      "payable": false,
      "stateMutability": "view",
      "type": "function"
    }
  ],
  "bytecode": "0x60806040526001600060146101000a81548160ff02191690831515021790555060006003553480156200003157600080fd5b50604051620027cb380380620027cb833981810160405260408110156200005757600080fd5b8101908080519060200190929190805160405193929190846401000000008211156200008257600080fd5b838201915060208201858111156200009957600080fd5b8251866001820283011164010000000082111715620000b757600080fd5b8083526020830192505050908051906020019080838360005b83811015620000ed578082015181840152602081019050620000d0565b50505050905090810190601f1680156200011b5780820380516001836020036101000a031916815260200191505b50604052505050336000806101000a81548173ffffffffffffffffffffffffffffffffffffffff021916908373ffffffffffffffffffffffffffffffffffffffff1602179055506200017482826200017c60201b60201c565b5050620004c7565b6200019960016003546200038f60201b62001ced1790919060201c565b6003819055506040518060a001604052808373ffffffffffffffffffffffffffffffffffffffff1681526020018281526020016001151581526020016000151581526020016000815250600260008473ffffffffffffffffffffffffffffffffffffffff1673ffffffffffffffffffffffffffffffffffffffff16815260200190815260200160002060008201518160000160006101000a81548173ffffffffffffffffffffffffffffffffffffffff021916908373ffffffffffffffffffffffffffffffffffffffff16021790555060208201518160010190805190602001906200028792919062000418565b5060408201518160020160006101000a81548160ff02191690831515021790555060608201518160020160016101000a81548160ff021916908315150217905550608082015181600301559050508173ffffffffffffffffffffffffffffffffffffffff167f294dddb53f70a203207c6832dd1a7309fe54e7ea6941b3010c33d831cd9ea234826040518080602001828103825283818151815260200191508051906020019080838360005b838110156200035057808201518184015260208101905062000333565b50505050905090810190601f1680156200037e5780820380516001836020036101000a031916815260200191505b509250505060405180910390a25050565b6000808284019050838110156200040e576040517f08c379a000000000000000000000000000000000000000000000000000000000815260040180806020018281038252601b8152602001807f536166654d6174683a206164646974696f6e206f766572666c6f77000000000081525060200191505060405180910390fd5b8091505092915050565b828054600181600116156101000203166002900490600052602060002090601f016020900481019282601f106200045b57805160ff19168380011785556200048c565b828001600101855582156200048c579182015b828111156200048b5782518255916020019190600101906200046e565b5b5090506200049b91906200049f565b5090565b620004c491905b80821115620004c0576000816000905550600101620004a6565b5090565b90565b6122f480620004d76000396000f3fe6080604052600436106100e85760003560e01c8063351831701161008a5780639f818924116100595780639f818924146106dc578063cd905dff14610741578063ee38a74914610770578063f897a8e514610816576100e8565b806335183170146104b95780633b1e89301461057c5780636873c21d1461066057806370d854b5146106b1576100e8565b8063110466ed116100c6578063110466ed146103825780632144df53146103bf57806323024408146104245780632c388d5d14610468576100e8565b8063010c5c971461025f5780630c11dedd146102c85780630e422d4314610319575b600260003373ffffffffffffffffffffffffffffffffffffffff1673ffffffffffffffffffffffffffffffffffffffff16815260200190815260200160002060020160009054906101000a900460ff166101aa576040517f08c379a00000000000000000000000000000000000000000000000000000000081526004018080602001828103825260198152602001807f4169726c696e65206973206e6f7420726567697374657265640000000000000081525060200191505060405180910390fd5b6101b433346108c6565b6001600260003373ffffffffffffffffffffffffffffffffffffffff1673ffffffffffffffffffffffffffffffffffffffff16815260200190815260200160002060020160016101000a81548160ff0219169083151502179055503373ffffffffffffffffffffffffffffffffffffffff167f593f160f758d1e5b1303915f94207691e080003aba9a82af97561dff1c0e9c9f346040518082815260200191505060405180910390a2005b34801561026b57600080fd5b506102ae6004803603602081101561028257600080fd5b81019080803573ffffffffffffffffffffffffffffffffffffffff169060200190929190505050610965565b604051808215151515815260200191505060405180910390f35b3480156102d457600080fd5b50610317600480360360208110156102eb57600080fd5b81019080803573ffffffffffffffffffffffffffffffffffffffff1690602001909291905050506109c5565b005b34801561032557600080fd5b506103686004803603602081101561033c57600080fd5b81019080803573ffffffffffffffffffffffffffffffffffffffff169060200190929190505050610ba4565b604051808215151515815260200191505060405180910390f35b34801561038e57600080fd5b506103bd600480360360208110156103a557600080fd5b81019080803515159060200190929190505050610cc3565b005b3480156103cb57600080fd5b5061040e600480360360208110156103e257600080fd5b81019080803573ffffffffffffffffffffffffffffffffffffffff169060200190929190505050610da2565b6040518082815260200191505060405180910390f35b6104666004803603602081101561043a57600080fd5b81019080803573ffffffffffffffffffffffffffffffffffffffff169060200190929190505050610deb565b005b34801561047457600080fd5b506104b76004803603602081101561048b57600080fd5b81019080803573ffffffffffffffffffffffffffffffffffffffff169060200190929190505050610f60565b005b61057a600480360360808110156104cf57600080fd5b81019080803573ffffffffffffffffffffffffffffffffffffffff169060200190929190803573ffffffffffffffffffffffffffffffffffffffff1690602001909291908035906020019064010000000081111561052c57600080fd5b82018360208201111561053e57600080fd5b8035906020019184600183028401116401000000008311171561056057600080fd5b90919293919293908035906020019092919050505061107c565b005b34801561058857600080fd5b5061064a6004803603608081101561059f57600080fd5b81019080803573ffffffffffffffffffffffffffffffffffffffff169060200190929190803573ffffffffffffffffffffffffffffffffffffffff169060200190929190803590602001906401000000008111156105fc57600080fd5b82018360208201111561060e57600080fd5b8035906020019184600183028401116401000000008311171561063057600080fd5b9091929391929390803590602001909291905050506113c7565b6040518082815260200191505060405180910390f35b34801561066c57600080fd5b506106af6004803603602081101561068357600080fd5b81019080803573ffffffffffffffffffffffffffffffffffffffff169060200190929190505050611515565b005b3480156106bd57600080fd5b506106c6611632565b6040518082815260200191505060405180910390f35b3480156106e857600080fd5b5061072b600480360360208110156106ff57600080fd5b81019080803573ffffffffffffffffffffffffffffffffffffffff16906020019092919050505061163c565b6040518082815260200191505060405180910390f35b34801561074d57600080fd5b50610756611747565b604051808215151515815260200191505060405180910390f35b34801561077c57600080fd5b506108146004803603604081101561079357600080fd5b81019080803573ffffffffffffffffffffffffffffffffffffffff169060200190929190803590602001906401000000008111156107d057600080fd5b8201836020820111156107e257600080fd5b8035906020019184600183028401116401000000008311171561080457600080fd5b909192939192939050505061175d565b005b34801561082257600080fd5b506108c46004803603606081101561083957600080fd5b81019080803573ffffffffffffffffffffffffffffffffffffffff1690602001909291908035906020019064010000000081111561087657600080fd5b82018360208201111561088857600080fd5b803590602001918460018302840111640100000000831117156108aa57600080fd5b90919293919293908035906020019092919050505061186f565b005b61091b81600260008573ffffffffffffffffffffffffffffffffffffffff1673ffffffffffffffffffffffffffffffffffffffff16815260200190815260200160002060030154611ced90919063ffffffff16565b600260008473ffffffffffffffffffffffffffffffffffffffff1673ffffffffffffffffffffffffffffffffffffffff168152602001908152602001600020600301819055505050565b600060011515600260008473ffffffffffffffffffffffffffffffffffffffff1673ffffffffffffffffffffffffffffffffffffffff16815260200190815260200160002060020160009054906101000a900460ff161515149050919050565b600160003373ffffffffffffffffffffffffffffffffffffffff1673ffffffffffffffffffffffffffffffffffffffff16815260200190815260200160002060009054906101000a900460ff16610a84576040517f08c379a00000000000000000000000000000000000000000000000000000000081526004018080602001828103825260188152602001807f43616c6c6572206973206e6f7420617574686f72697a6564000000000000000081525060200191505060405180910390fd5b6000600660008373ffffffffffffffffffffffffffffffffffffffff1673ffffffffffffffffffffffffffffffffffffffff168152602001908152602001600020549050600660008373ffffffffffffffffffffffffffffffffffffffff1673ffffffffffffffffffffffffffffffffffffffff168152602001908152602001600020600090558173ffffffffffffffffffffffffffffffffffffffff166108fc829081150290604051600060405180830381858888f19350505050158015610b51573d6000803e3d6000fd5b508173ffffffffffffffffffffffffffffffffffffffff167fa976db6a1ab2b2119ca95cf2715193b8b35e6834d94eb5a3647ca8d6d2314b4b826040518082815260200191505060405180910390a25050565b6000600160003373ffffffffffffffffffffffffffffffffffffffff1673ffffffffffffffffffffffffffffffffffffffff16815260200190815260200160002060009054906101000a900460ff16610c65576040517f08c379a00000000000000000000000000000000000000000000000000000000081526004018080602001828103825260188152602001807f43616c6c6572206973206e6f7420617574686f72697a6564000000000000000081525060200191505060405180910390fd5b60011515600260008473ffffffffffffffffffffffffffffffffffffffff1673ffffffffffffffffffffffffffffffffffffffff16815260200190815260200160002060020160019054906101000a900460ff161515149050919050565b6000809054906101000a900473ffffffffffffffffffffffffffffffffffffffff1673ffffffffffffffffffffffffffffffffffffffff163373ffffffffffffffffffffffffffffffffffffffff1614610d85576040517f08c379a000000000000000000000000000000000000000000000000000000000815260040180806020018281038252601c8152602001807f43616c6c6572206973206e6f7420636f6e7472616374206f776e65720000000081525060200191505060405180910390fd5b80600060146101000a81548160ff02191690831515021790555050565b6000600660008373ffffffffffffffffffffffffffffffffffffffff1673ffffffffffffffffffffffffffffffffffffffff168152602001908152602001600020549050919050565b600160003373ffffffffffffffffffffffffffffffffffffffff1673ffffffffffffffffffffffffffffffffffffffff16815260200190815260200160002060009054906101000a900460ff16610eaa576040517f08c379a00000000000000000000000000000000000000000000000000000000081526004018080602001828103825260188152602001807f43616c6c6572206973206e6f7420617574686f72697a6564000000000000000081525060200191505060405180910390fd5b610eb481346108c6565b6001600260008373ffffffffffffffffffffffffffffffffffffffff1673ffffffffffffffffffffffffffffffffffffffff16815260200190815260200160002060020160016101000a81548160ff0219169083151502179055508073ffffffffffffffffffffffffffffffffffffffff167f593f160f758d1e5b1303915f94207691e080003aba9a82af97561dff1c0e9c9f346040518082815260200191505060405180910390a250565b6000809054906101000a900473ffffffffffffffffffffffffffffffffffffffff1673ffffffffffffffffffffffffffffffffffffffff163373ffffffffffffffffffffffffffffffffffffffff1614611022576040517f08c379a000000000000000000000000000000000000000000000000000000000815260040180806020018281038252601c8152602001807f43616c6c6572206973206e6f7420636f6e7472616374206f776e65720000000081525060200191505060405180910390fd5b60018060008373ffffffffffffffffffffffffffffffffffffffff1673ffffffffffffffffffffffffffffffffffffffff16815260200190815260200160002060006101000a81548160ff02191690831515021790555050565b60006110cd8585858080601f016020809104026020016040519081016040528093929190818152602001838380828437600081840152601f19601f8201169050808301925050505050505084611d75565b905061112434600260008873ffffffffffffffffffffffffffffffffffffffff1673ffffffffffffffffffffffffffffffffffffffff16815260200190815260200160002060030154611ced90919063ffffffff16565b600260008773ffffffffffffffffffffffffffffffffffffffff1673ffffffffffffffffffffffffffffffffffffffff16815260200190815260200160002060030181905550600460008281526020019081526020016000206040518060a001604052808873ffffffffffffffffffffffffffffffffffffffff1681526020013481526020018773ffffffffffffffffffffffffffffffffffffffff16815260200186868080601f016020809104026020016040519081016040528093929190818152602001838380828437600081840152601f19601f820116905080830192505050505050508152602001848152509080600181540180825580915050906001820390600052602060002090600502016000909192909190915060008201518160000160006101000a81548173ffffffffffffffffffffffffffffffffffffffff021916908373ffffffffffffffffffffffffffffffffffffffff1602179055506020820151816001015560408201518160020160006101000a81548173ffffffffffffffffffffffffffffffffffffffff021916908373ffffffffffffffffffffffffffffffffffffffff16021790555060608201518160030190805190602001906112f39291906121d6565b50608082015181600401555050508573ffffffffffffffffffffffffffffffffffffffff167ff9bc2f6f210729f3e52d5b6f34da7f12991e929978ea335f9b678ad27caa8b103487878787604051808681526020018573ffffffffffffffffffffffffffffffffffffffff1673ffffffffffffffffffffffffffffffffffffffff168152602001806020018381526020018281038252858582818152602001925080828437600081840152601f19601f820116905080830192505050965050505050505060405180910390a2505050505050565b6000809050600061141d8686868080601f016020809104026020016040519081016040528093929190818152602001838380828437600081840152601f19601f8201169050808301925050505050505085611d75565b905060008090505b600460008381526020019081526020016000208054905081101561150a578773ffffffffffffffffffffffffffffffffffffffff1660046000848152602001908152602001600020828154811061147857fe5b906000526020600020906005020160000160009054906101000a900473ffffffffffffffffffffffffffffffffffffffff1673ffffffffffffffffffffffffffffffffffffffff1614156114fd576004600083815260200190815260200160002081815481106114e457fe5b906000526020600020906005020160010154925061150a565b8080600101915050611425565b505095945050505050565b6000809054906101000a900473ffffffffffffffffffffffffffffffffffffffff1673ffffffffffffffffffffffffffffffffffffffff163373ffffffffffffffffffffffffffffffffffffffff16146115d7576040517f08c379a000000000000000000000000000000000000000000000000000000000815260040180806020018281038252601c8152602001807f43616c6c6572206973206e6f7420636f6e7472616374206f776e65720000000081525060200191505060405180910390fd5b6000600160008373ffffffffffffffffffffffffffffffffffffffff1673ffffffffffffffffffffffffffffffffffffffff16815260200190815260200160002060006101000a81548160ff02191690831515021790555050565b6000600354905090565b6000600160003373ffffffffffffffffffffffffffffffffffffffff1673ffffffffffffffffffffffffffffffffffffffff16815260200190815260200160002060009054906101000a900460ff166116fd576040517f08c379a00000000000000000000000000000000000000000000000000000000081526004018080602001828103825260188152602001807f43616c6c6572206973206e6f7420617574686f72697a6564000000000000000081525060200191505060405180910390fd5b600260008373ffffffffffffffffffffffffffffffffffffffff1673ffffffffffffffffffffffffffffffffffffffff168152602001908152602001600020600301549050919050565b60008060149054906101000a900460ff16905090565b600160003373ffffffffffffffffffffffffffffffffffffffff1673ffffffffffffffffffffffffffffffffffffffff16815260200190815260200160002060009054906101000a900460ff1661181c576040517f08c379a00000000000000000000000000000000000000000000000000000000081526004018080602001828103825260188152602001807f43616c6c6572206973206e6f7420617574686f72697a6564000000000000000081525060200191505060405180910390fd5b61186a8383838080601f016020809104026020016040519081016040528093929190818152602001838380828437600081840152601f19601f82011690508083019250505050505050611e31565b505050565b600160003373ffffffffffffffffffffffffffffffffffffffff1673ffffffffffffffffffffffffffffffffffffffff16815260200190815260200160002060009054906101000a900460ff1661192e576040517f08c379a00000000000000000000000000000000000000000000000000000000081526004018080602001828103825260188152602001807f43616c6c6572206973206e6f7420617574686f72697a6564000000000000000081525060200191505060405180910390fd5b600061197f8585858080601f016020809104026020016040519081016040528093929190818152602001838380828437600081840152601f19601f8201169050808301925050505050505084611d75565b90506005600082815260200190815260200160002060009054906101000a900460ff16156119f8576040517f08c379a000000000000000000000000000000000000000000000000000000000815260040180806020018281038252602381526020018061229d6023913960400191505060405180910390fd5b60008090505b6004600083815260200190815260200160002080549050811015611c57576000600460008481526020019081526020016000208281548110611a3c57fe5b906000526020600020906005020160000160009054906101000a900473ffffffffffffffffffffffffffffffffffffffff1690506000611ac86002611aba6003600460008981526020019081526020016000208781548110611a9a57fe5b90600052602060002090600502016001015461203890919063ffffffff16565b6120be90919063ffffffff16565b9050611b1c81600660008573ffffffffffffffffffffffffffffffffffffffff1673ffffffffffffffffffffffffffffffffffffffff16815260200190815260200160002054611ced90919063ffffffff16565b600660008473ffffffffffffffffffffffffffffffffffffffff1673ffffffffffffffffffffffffffffffffffffffff16815260200190815260200160002081905550611bb481600260008b73ffffffffffffffffffffffffffffffffffffffff1673ffffffffffffffffffffffffffffffffffffffff1681526020019081526020016000206003015461214d90919063ffffffff16565b600260008a73ffffffffffffffffffffffffffffffffffffffff1673ffffffffffffffffffffffffffffffffffffffff168152602001908152602001600020600301819055508173ffffffffffffffffffffffffffffffffffffffff167f8eb7fb1015a3c6d6716dcad4ea2d262bf9e0dedc36814696940cc9551b9dc804826040518082815260200191505060405180910390a2505080806001019150506119fe565b5060016005600083815260200190815260200160002060006101000a81548160ff021916908315150217905550838360405180838380828437808301925050509250505060405180910390208573ffffffffffffffffffffffffffffffffffffffff167fd764a068a53567bc87716d209eba96c5752b887aac6de9060bf7a8515ce4a4ef60405160405180910390a35050505050565b600080828401905083811015611d6b576040517f08c379a000000000000000000000000000000000000000000000000000000000815260040180806020018281038252601b8152602001807f536166654d6174683a206164646974696f6e206f766572666c6f77000000000081525060200191505060405180910390fd5b8091505092915050565b6000838383604051602001808473ffffffffffffffffffffffffffffffffffffffff1673ffffffffffffffffffffffffffffffffffffffff1660601b815260140183805190602001908083835b60208310611de55780518252602082019150602081019050602083039250611dc2565b6001836020036101000a03801982511681845116808217855250505050505090500182815260200193505050506040516020818303038152906040528051906020012090509392505050565b611e476001600354611ced90919063ffffffff16565b6003819055506040518060a001604052808373ffffffffffffffffffffffffffffffffffffffff1681526020018281526020016001151581526020016000151581526020016000815250600260008473ffffffffffffffffffffffffffffffffffffffff1673ffffffffffffffffffffffffffffffffffffffff16815260200190815260200160002060008201518160000160006101000a81548173ffffffffffffffffffffffffffffffffffffffff021916908373ffffffffffffffffffffffffffffffffffffffff1602179055506020820151816001019080519060200190611f339291906121d6565b5060408201518160020160006101000a81548160ff02191690831515021790555060608201518160020160016101000a81548160ff021916908315150217905550608082015181600301559050508173ffffffffffffffffffffffffffffffffffffffff167f294dddb53f70a203207c6832dd1a7309fe54e7ea6941b3010c33d831cd9ea234826040518080602001828103825283818151815260200191508051906020019080838360005b83811015611ffa578082015181840152602081019050611fdf565b50505050905090810190601f1680156120275780820380516001836020036101000a031916815260200191505b509250505060405180910390a25050565b60008083141561204b57600090506120b8565b600082840290508284828161205c57fe5b04146120b3576040517f08c379a000000000000000000000000000000000000000000000000000000000815260040180806020018281038252602181526020018061227c6021913960400191505060405180910390fd5b809150505b92915050565b6000808211612135576040517f08c379a000000000000000000000000000000000000000000000000000000000815260040180806020018281038252601a8152602001807f536166654d6174683a206469766973696f6e206279207a65726f00000000000081525060200191505060405180910390fd5b600082848161214057fe5b0490508091505092915050565b6000828211156121c5576040517f08c379a000000000000000000000000000000000000000000000000000000000815260040180806020018281038252601e8152602001807f536166654d6174683a207375627472616374696f6e206f766572666c6f77000081525060200191505060405180910390fd5b600082840390508091505092915050565b828054600181600116156101000203166002900490600052602060002090601f016020900481019282601f1061221757805160ff1916838001178555612245565b82800160010185558215612245579182015b82811115612244578251825591602001919060010190612229565b5b5090506122529190612256565b5090565b61227891905b8082111561227457600081600090555060010161225c565b5090565b9056fe536166654d6174683a206d756c7469706c69636174696f6e206f766572666c6f77496e737572616e63652068617320616c7265616479206265656e207265636569766564a265627a7a7231582013df884027fe5c24d7dfbd0bc404a8cb98fdca0f658d3352decdb8bd715adce364736f6c63430005110032",
  "source": "pragma solidity ^ 0.5.16;\n\n// import \"../node_modules/openzeppelin-solidity/contracts/math/SafeMath.sol\";\nimport \"openzeppelin-solidity/contracts/math/SafeMath.sol\";\n\ncontract FlightSuretyData {\n    using SafeMath for uint8;\n    using SafeMath for uint256;\n\n    /********************************************************************************************/\n    /*                                       DATA VARIABLES                                     */\n    /********************************************************************************************/\n\n    address private contractOwner;                                      // Account used to deploy contract\n    bool private operational = true;                                    // Blocks all state changes throughout the contract if false\n    mapping(address => bool) private authorizedCallers;\n    mapping(address => Airline) private airlines;\n\n    struct Airline {\n        address airline;\n        string name;\n        bool isRegistered;\n        bool isPaid;\n        uint256 fund;\n    }\n\n    uint256 internal countAirlines = 0;\n\n    struct Insurance {\n        address payable customer;\n        uint256 value;\n        address airline;\n        string flight;\n        uint256 timeStamp;\n    }\n\n    mapping(bytes32 => Insurance[]) private protection;\n    mapping(bytes32 => bool) private insuranceReceived;\n    mapping(address => uint256) private credittheCustomer;\n\n    /********************************************************************************************/\n    /*                                       EVENT DEFINITIONS                                  */\n    /********************************************************************************************/\n\n\n    /**\n    * @dev Constructor\n    *      The deploying account becomes contractOwner\n    */\n\n    constructor(address airline, string memory flight) public {\n        contractOwner = msg.sender;\n        includeAirline(airline, flight);\n    }\n\n    /********************************************************************************************/\n    /*                                       Events                                             */\n    /********************************************************************************************/\n\n    event AirlineisRegistered(address indexed airline, string flight);\n\n    event AirlineisFunded(address indexed airline, uint256 value);\n\n    event InsurancePurchased(address indexed customer, uint256 value, address airline, string flight, uint256 timeStamp);\n\n    event InsuranceFundsAccessible(address indexed account, string indexed flight);\n\n    event InsuranceFunded(address indexed customer, uint256 value);\n\n    event InsurancePaid(address indexed customer, uint256 value);\n\n    /********************************************************************************************/\n    /*                                       FUNCTION MODIFIERS                                 */\n    /********************************************************************************************/\n\n    // Modifiers help avoid duplication of code. They are typically used to validate something\n    // before a function is allowed to be executed.\n\n    /**\n    * @dev Modifier that requires the \"operational\" boolean variable to be \"true\"\n    *      This is used on all state changing functions to pause the contract in\n    *      the event there is an issue that needs to be fixed\n    */\n    modifier requireIsOperational() {\n        require(operational, \"Contract is currently not operational\");\n        _;  // All modifiers require an \"_\" which indicates where the function body will be added\n    }\n\n    /**\n    * @dev Modifier that requires the \"ContractOwner\" account to be the function caller\n    */\n    modifier requireContractOwner() {\n        require(msg.sender == contractOwner, \"Caller is not contract owner\");\n        _;\n    }\n\n    modifier requireIsCallerAuthorized() {\n        require(authorizedCallers[msg.sender], \"Caller is not authorized\");\n        _;\n    }\n\n    modifier requireAirlineisRegistered() {\n        require(airlines[msg.sender].isRegistered, \"Airline is not registered\");\n        _;\n    }\n\n    modifier requireAirlineisFunded() {\n        require(airlines[msg.sender].isPaid, \"Airline is not funded\");\n        _;\n    }\n\n    /********************************************************************************************/\n    /*                                       UTILITY FUNCTIONS                                  */\n    /********************************************************************************************/\n\n    /**\n    * @dev Get operating status of contract\n    *\n    * @return A bool that is the current operating status\n    */\n\n    function isOperational() public view returns(bool) {\n        return operational;\n    }\n\n\n    /**\n    * @dev Sets contract operations on/off\n    *\n    * When operational mode is disabled, all write transactions except for this one will fail\n    */\n\n    function setOperatingStatus(bool mode) external requireContractOwner {\n        operational = mode;\n    }\n\n    function authorizeCaller(address contractAddress) external requireContractOwner {\n        authorizedCallers[contractAddress] = true;\n    }\n\n    function deauthorizeCaller(address contractAddress) external requireContractOwner {\n        authorizedCallers[contractAddress] = false;\n    }\n\n    /********************************************************************************************/\n    /*                                     SMART CONTRACT FUNCTIONS                             */\n    /********************************************************************************************/\n\n   /**\n    * @dev Add an airline to the registration queue\n    *      Can only be called from FlightSuretyApp contract\n    *\n    */\n\n    function registerAirline(address airline, string calldata flight) external requireIsCallerAuthorized{\n       includeAirline(airline, flight);\n   }\n\n    function includeAirline(address airline, string memory flight) private {\n        countAirlines = countAirlines.add(1);\n        airlines[airline] = Airline(airline, flight, true, false, 0);\n        emit AirlineisRegistered(airline, flight);\n    }\n\n   /**\n    * @dev Buy insurance for a flight\n    *\n    */\n\n    function buy(address payable customer, address airline, string calldata flight, uint256 timeStamp) external payable {\n        bytes32 flightKey = getFlightKey(airline, flight, timeStamp);\n        airlines[airline].fund = airlines[airline].fund.add(msg.value);\n        protection[flightKey].push(Insurance(customer, msg.value, airline, flight, timeStamp));\n        emit InsurancePurchased(customer, msg.value, airline, flight, timeStamp);\n    }\n\n    /**\n     *  @dev Credits payouts to customers\n    */\n\n    function creditCustomer(address airline, string calldata flight, uint256 timeStamp) external requireIsCallerAuthorized {\n        bytes32 flightKey = getFlightKey(airline, flight, timeStamp);\n        require(!insuranceReceived[flightKey], \"Insurance has already been received\");\n        for (uint i = 0; i < protection[flightKey].length; i++) {\n            address customer = protection[flightKey][i].customer;\n            uint256 valueCredited = protection[flightKey][i].value.mul(3).div(2);\n            credittheCustomer[customer] = credittheCustomer[customer].add(valueCredited);\n            airlines[airline].fund = airlines[airline].fund.sub(valueCredited);\n            emit InsuranceFunded(customer, valueCredited);\n        }\n        insuranceReceived[flightKey] = true;\n        emit InsuranceFundsAccessible(airline, flight);\n    }\n\n    /**\n     *  @dev Transfers eligible payout funds to customer\n     *\n    */\n\n    function pay(address payable customer) external requireIsCallerAuthorized {\n        uint256 value = credittheCustomer[customer];\n        delete(credittheCustomer[customer]);\n        customer.transfer(value);\n        emit InsurancePaid(customer, value);\n    }\n\n   /**\n    * @dev Initial funding for the insurance. Unless there are too many delayed flights\n    *      resulting in insurance payouts, the contract should be self-sustaining\n    *\n    */\n\n    function fund(address airline) external payable requireIsCallerAuthorized {\n        includeFund(airline, msg.value);\n        airlines[airline].isPaid = true;\n        emit AirlineisFunded(airline, msg.value);\n    }\n\n    function includeFund(address airline, uint256 payValue) private {\n        airlines[airline].fund = airlines[airline].fund.add(payValue);\n    }\n\n    function AirlineisPaid(address airline) external view requireIsCallerAuthorized returns(bool) {\n        return airlines[airline].isPaid == true;\n    }\n\n    function receivePay(address airline) external view requireIsCallerAuthorized returns(uint256) {\n        return airlines[airline].fund;\n    }\n\n    function receiveAirlineCount() external view returns(uint256) {\n        return countAirlines;\n    }\n\n    function isAirlineRegistered(address airline) external view returns(bool) {\n        return airlines[airline].isRegistered == true;\n    }\n\n\n    function receiveAmountPaidByCustomer(address payable customer, address airline, string calldata flight, uint256 timeStamp) external view returns(uint256 valuePaid) {\n        valuePaid = 0;\n        bytes32 flightKey = getFlightKey(airline, flight, timeStamp);\n        for (uint i = 0; i < protection[flightKey].length; i++) {\n            if (protection[flightKey][i].customer == customer) {\n                valuePaid = protection[flightKey][i].value;\n                break;\n            }\n        }\n    }\n\n    function receiveCustomerFunded(address payable customer) external view returns(uint256 value) {\n        return credittheCustomer[customer];\n    }\n\n    function getFlightKey(address airline, string memory flight, uint256 timestamp) pure internal returns(bytes32) {\n        return keccak256(abi.encodePacked(airline, flight, timestamp));\n    }\n\n    /**\n    * @dev Fallback function for funding smart contract.\n    *\n    */\n\n    function() external payable requireAirlineisRegistered {\n        includeFund(msg.sender, msg.value);\n        airlines[msg.sender].isPaid = true;\n        emit AirlineisFunded(msg.sender, msg.value);\n    }\n}\n",
  "sourcePath": "/Users/aprilnixon-henry/Downloads/FlightSurety-master/contracts/FlightSuretyData.sol",
  "compiler": {
    "name": "solc",
    "version": "0.5.17+commit.d19bba13.Emscripten.clang"
  },
  "schemaVersion": "3.4.8",
  "updatedAt": "2022-08-08T16:14:23.144Z",
  "devdoc": {
    "methods": {
      "buy(address,address,string,uint256)": {
        "details": "Buy insurance for a flight    "
      },
      "constructor": {
        "details": "Constructor     The deploying account becomes contractOwner"
      },
      "creditCustomer(address,string,uint256)": {
        "details": "Credits payouts to customers"
      },
      "fund(address)": {
        "details": "Initial funding for the insurance. Unless there are too many delayed flights     resulting in insurance payouts, the contract should be self-sustaining    "
      },
      "isOperational()": {
        "details": "Get operating status of contract",
        "return": "A bool that is the current operating status"
      },
      "pay(address)": {
        "details": "Transfers eligible payout funds to customer    "
      },
      "registerAirline(address,string)": {
        "details": "Add an airline to the registration queue     Can only be called from FlightSuretyApp contract    "
      },
      "setOperatingStatus(bool)": {
        "details": "Sets contract operations on/off    * When operational mode is disabled, all write transactions except for this one will fail"
      }
    }
  },
  "userdoc": {
    "methods": {}
  }
}