{
  "contractName": "FlightSuretyData",
  "abi": [
    {
      "inputs": [
        {
          "internalType": "address",
          "name": "airlineAddress",
          "type": "address"
        }
      ],
      "payable": true,
      "stateMutability": "payable",
      "type": "constructor"
    },
    {
      "anonymous": false,
      "inputs": [],
      "name": "AirlineInfo",
      "type": "event"
    },
    {
      "anonymous": false,
      "inputs": [
        {
          "indexed": false,
          "internalType": "address",
          "name": "_contractId",
          "type": "address"
        }
      ],
      "name": "ContractAuthorized",
      "type": "event"
    },
    {
      "anonymous": false,
      "inputs": [
        {
          "indexed": false,
          "internalType": "bool",
          "name": "_state",
          "type": "bool"
        }
      ],
      "name": "OperationalStatusChanged",
      "type": "event"
    },
    {
      "anonymous": false,
      "inputs": [
        {
          "indexed": false,
          "internalType": "address",
          "name": "airlineAddress",
          "type": "address"
        },
        {
          "indexed": false,
          "internalType": "uint256",
          "name": "payment",
          "type": "uint256"
        },
        {
          "indexed": false,
          "internalType": "uint256",
          "name": "balance",
          "type": "uint256"
        }
      ],
      "name": "PaidAmount",
      "type": "event"
    },
    {
      "payable": true,
      "stateMutability": "payable",
      "type": "fallback"
    },
    {
      "constant": true,
      "inputs": [
        {
          "internalType": "address",
          "name": "",
          "type": "address"
        }
      ],
      "name": "theregisteredAirlines",
      "outputs": [
        {
          "internalType": "address",
          "name": "airlineAddress",
          "type": "address"
        },
        {
          "internalType": "bool",
          "name": "isRegistered",
          "type": "bool"
        },
        {
          "internalType": "uint256",
          "name": "feeSettled",
          "type": "uint256"
        },
        {
          "internalType": "uint256",
          "name": "registeredInd",
          "type": "uint256"
        },
        {
          "internalType": "bool",
          "name": "isFunded",
          "type": "bool"
        },
        {
          "internalType": "uint256",
          "name": "totalVotes",
          "type": "uint256"
        }
      ],
      "payable": false,
      "stateMutability": "view",
      "type": "function"
    },
    {
      "constant": false,
      "inputs": [
        {
          "internalType": "address",
          "name": "contractAddress",
          "type": "address"
        }
      ],
      "name": "authorizeCaller",
      "outputs": [],
      "payable": false,
      "stateMutability": "nonpayable",
      "type": "function"
    },
    {
      "constant": true,
      "inputs": [],
      "name": "isOperational",
      "outputs": [
        {
          "internalType": "bool",
          "name": "",
          "type": "bool"
        }
      ],
      "payable": false,
      "stateMutability": "view",
      "type": "function"
    },
    {
      "constant": false,
      "inputs": [
        {
          "internalType": "bool",
          "name": "mode",
          "type": "bool"
        }
      ],
      "name": "setOperatingStatus",
      "outputs": [],
      "payable": false,
      "stateMutability": "nonpayable",
      "type": "function"
    },
    {
      "constant": false,
      "inputs": [
        {
          "internalType": "address",
          "name": "airlineAddress",
          "type": "address"
        },
        {
          "internalType": "bool",
          "name": "isRegistered",
          "type": "bool"
        },
        {
          "internalType": "uint256",
          "name": "registeredInd",
          "type": "uint256"
        },
        {
          "internalType": "uint256",
          "name": "totalVotes",
          "type": "uint256"
        }
      ],
      "name": "inputAirlines",
      "outputs": [],
      "payable": false,
      "stateMutability": "nonpayable",
      "type": "function"
    },
    {
      "constant": true,
      "inputs": [
        {
          "internalType": "address",
          "name": "isAirline",
          "type": "address"
        }
      ],
      "name": "istheAirlineRegistered",
      "outputs": [
        {
          "internalType": "bool",
          "name": "",
          "type": "bool"
        }
      ],
      "payable": false,
      "stateMutability": "view",
      "type": "function"
    },
    {
      "constant": false,
      "inputs": [
        {
          "internalType": "address",
          "name": "airlineAddress",
          "type": "address"
        },
        {
          "internalType": "uint256",
          "name": "fee",
          "type": "uint256"
        }
      ],
      "name": "payMinFee",
      "outputs": [],
      "payable": true,
      "stateMutability": "payable",
      "type": "function"
    },
    {
      "constant": false,
      "inputs": [
        {
          "internalType": "address",
          "name": "_airlines",
          "type": "address"
        },
        {
          "internalType": "uint256",
          "name": "_fee",
          "type": "uint256"
        }
      ],
      "name": "_payMinFee",
      "outputs": [],
      "payable": true,
      "stateMutability": "payable",
      "type": "function"
    },
    {
      "constant": true,
      "inputs": [],
      "name": "receiveRemainder",
      "outputs": [
        {
          "internalType": "uint256",
          "name": "",
          "type": "uint256"
        }
      ],
      "payable": false,
      "stateMutability": "view",
      "type": "function"
    },
    {
      "constant": false,
      "inputs": [
        {
          "internalType": "address",
          "name": "_airlines",
          "type": "address"
        }
      ],
      "name": "isAirlineFunded",
      "outputs": [
        {
          "internalType": "bool",
          "name": "",
          "type": "bool"
        }
      ],
      "payable": false,
      "stateMutability": "nonpayable",
      "type": "function"
    },
    {
      "constant": false,
      "inputs": [],
      "name": "amountofAirlines",
      "outputs": [
        {
          "internalType": "uint256",
          "name": "",
          "type": "uint256"
        }
      ],
      "payable": false,
      "stateMutability": "nonpayable",
      "type": "function"
    },
    {
      "constant": false,
      "inputs": [
        {
          "internalType": "bytes32",
          "name": "key",
          "type": "bytes32"
        },
        {
          "internalType": "address",
          "name": "airlineAddress",
          "type": "address"
        },
        {
          "internalType": "bool",
          "name": "status",
          "type": "bool"
        },
        {
          "internalType": "string",
          "name": "flightName",
          "type": "string"
        },
        {
          "internalType": "uint256",
          "name": "timestamp",
          "type": "uint256"
        },
        {
          "internalType": "uint8",
          "name": "statusCode",
          "type": "uint8"
        }
      ],
      "name": "registerFlight",
      "outputs": [],
      "payable": false,
      "stateMutability": "nonpayable",
      "type": "function"
    },
    {
      "constant": false,
      "inputs": [
        {
          "internalType": "bytes32",
          "name": "keyFlight",
          "type": "bytes32"
        }
      ],
      "name": "theregisteredFlight",
      "outputs": [
        {
          "internalType": "bool",
          "name": "status",
          "type": "bool"
        }
      ],
      "payable": false,
      "stateMutability": "nonpayable",
      "type": "function"
    },
    {
      "constant": true,
      "inputs": [],
      "name": "receiveFlights",
      "outputs": [
        {
          "internalType": "bytes32[]",
          "name": "",
          "type": "bytes32[]"
        }
      ],
      "payable": false,
      "stateMutability": "view",
      "type": "function"
    },
    {
      "constant": true,
      "inputs": [
        {
          "internalType": "bytes32",
          "name": "key",
          "type": "bytes32"
        }
      ],
      "name": "fetchFlightData",
      "outputs": [
        {
          "internalType": "string",
          "name": "",
          "type": "string"
        },
        {
          "internalType": "uint256",
          "name": "",
          "type": "uint256"
        },
        {
          "internalType": "address",
          "name": "",
          "type": "address"
        },
        {
          "internalType": "uint256",
          "name": "",
          "type": "uint256"
        }
      ],
      "payable": false,
      "stateMutability": "view",
      "type": "function"
    },
    {
      "constant": false,
      "inputs": [
        {
          "internalType": "bytes32",
          "name": "key",
          "type": "bytes32"
        },
        {
          "internalType": "uint8",
          "name": "status",
          "type": "uint8"
        }
      ],
      "name": "setFlightStatus",
      "outputs": [],
      "payable": false,
      "stateMutability": "nonpayable",
      "type": "function"
    },
    {
      "constant": false,
      "inputs": [
        {
          "internalType": "address payable",
          "name": "clientAddress",
          "type": "address"
        },
        {
          "internalType": "uint256",
          "name": "pay",
          "type": "uint256"
        },
        {
          "internalType": "bytes32",
          "name": "flightId",
          "type": "bytes32"
        }
      ],
      "name": "fund",
      "outputs": [
        {
          "internalType": "bool",
          "name": "success",
          "type": "bool"
        }
      ],
      "payable": false,
      "stateMutability": "nonpayable",
      "type": "function"
    },
    {
      "constant": true,
      "inputs": [
        {
          "internalType": "address",
          "name": "_clientAddress",
          "type": "address"
        }
      ],
      "name": "clientInfo",
      "outputs": [
        {
          "internalType": "bool",
          "name": "paid",
          "type": "bool"
        },
        {
          "internalType": "uint256",
          "name": "payment",
          "type": "uint256"
        },
        {
          "internalType": "bytes32",
          "name": "flightId",
          "type": "bytes32"
        },
        {
          "internalType": "bool",
          "name": "payout",
          "type": "bool"
        }
      ],
      "payable": false,
      "stateMutability": "view",
      "type": "function"
    },
    {
      "constant": false,
      "inputs": [
        {
          "internalType": "address payable",
          "name": "clientAddress",
          "type": "address"
        },
        {
          "internalType": "bytes32",
          "name": "flightkey",
          "type": "bytes32"
        }
      ],
      "name": "payout",
      "outputs": [],
      "payable": true,
      "stateMutability": "payable",
      "type": "function"
    },
    {
      "constant": false,
      "inputs": [
        {
          "internalType": "bytes32",
          "name": "flightkey",
          "type": "bytes32"
        },
        {
          "internalType": "bool",
          "name": "isLate",
          "type": "bool"
        }
      ],
      "name": "processFlightStatus",
      "outputs": [],
      "payable": false,
      "stateMutability": "nonpayable",
      "type": "function"
    },
    {
      "constant": true,
      "inputs": [
        {
          "internalType": "bytes32",
          "name": "key",
          "type": "bytes32"
        }
      ],
      "name": "getFlightData",
      "outputs": [
        {
          "internalType": "string",
          "name": "",
          "type": "string"
        },
        {
          "internalType": "uint256",
          "name": "",
          "type": "uint256"
        },
        {
          "internalType": "address",
          "name": "",
          "type": "address"
        },
        {
          "internalType": "uint256",
          "name": "",
          "type": "uint256"
        }
      ],
      "payable": false,
      "stateMutability": "view",
      "type": "function"
    }
  ],
  "bytecode": "0x60806040526001600060146101000a81548160ff021916908315150217905550600060015560006002556040516200314b3803806200314b833981810160405260208110156200004e57600080fd5b8101908080519060200190929190505050336000806101000a81548173ffffffffffffffffffffffffffffffffffffffff021916908373ffffffffffffffffffffffffffffffffffffffff160217905550620000b5816001600080620000c460201b60201c565b60006005819055505062000377565b600060149054906101000a900460ff166200012b576040517f08c379a0000000000000000000000000000000000000000000000000000000008152600401808060200182810382526025815260200180620031266025913960400191505060405180910390fd5b6006600554908060018154018082558091505090600182039060005260206000200160009091929091909150555060016005540160058190555083600460008673ffffffffffffffffffffffffffffffffffffffff1673ffffffffffffffffffffffffffffffffffffffff16815260200190815260200160002060000160006101000a81548173ffffffffffffffffffffffffffffffffffffffff021916908373ffffffffffffffffffffffffffffffffffffffff16021790555082600460008673ffffffffffffffffffffffffffffffffffffffff1673ffffffffffffffffffffffffffffffffffffffff16815260200190815260200160002060000160146101000a81548160ff0219169083151502179055506000600460008673ffffffffffffffffffffffffffffffffffffffff1673ffffffffffffffffffffffffffffffffffffffff1681526020019081526020016000206001018190555081600460008673ffffffffffffffffffffffffffffffffffffffff1673ffffffffffffffffffffffffffffffffffffffff168152602001908152602001600020600201819055506000600460008673ffffffffffffffffffffffffffffffffffffffff1673ffffffffffffffffffffffffffffffffffffffff16815260200190815260200160002060030160006101000a81548160ff02191690831515021790555080600460008673ffffffffffffffffffffffffffffffffffffffff1673ffffffffffffffffffffffffffffffffffffffff1681526020019081526020016000206004018190555050505050565b612d9f80620003876000396000f3fe60806040526004361061012a5760003560e01c80637c2c1e6b116100ab578063cd905dff1161006f578063cd905dff146107b5578063de7e864d146107e4578063e91b634e146108d9578063f1419bfd14610956578063f53b6d6514610981578063fbde53c0146109ea5761012a565b80637c2c1e6b146104c2578063a124327114610595578063a35da4be146105e3578063b1dcc78d14610654578063bfd8c4e1146107495761012a565b806339834981116100f2578063398349811461029d5780634bfb8132146103595780634dec9a33146103c25780635cf91e1d146103ed578063758dde96146104405761012a565b806301e03a311461012c57806309c267ce1461017a578063110466ed146101c157806311573ae4146101fe5780632c388d5d1461024c575b005b6101786004803603604081101561014257600080fd5b81019080803573ffffffffffffffffffffffffffffffffffffffff16906020019092919080359060200190929190505050610a32565b005b34801561018657600080fd5b506101bf6004803603604081101561019d57600080fd5b8101908080359060200190929190803515159060200190929190505050610aa5565b005b3480156101cd57600080fd5b506101fc600480360360208110156101e457600080fd5b81019080803515159060200190929190505050610cbb565b005b61024a6004803603604081101561021457600080fd5b81019080803573ffffffffffffffffffffffffffffffffffffffff16906020019092919080359060200190929190505050610e41565b005b34801561025857600080fd5b5061029b6004803603602081101561026f57600080fd5b81019080803573ffffffffffffffffffffffffffffffffffffffff169060200190929190505050610fdc565b005b3480156102a957600080fd5b506102ec600480360360208110156102c057600080fd5b81019080803573ffffffffffffffffffffffffffffffffffffffff169060200190929190505050611205565b604051808773ffffffffffffffffffffffffffffffffffffffff1673ffffffffffffffffffffffffffffffffffffffff1681526020018615151515815260200185815260200184815260200183151515158152602001828152602001965050505050505060405180910390f35b34801561036557600080fd5b506103a86004803603602081101561037c57600080fd5b81019080803573ffffffffffffffffffffffffffffffffffffffff16906020019092919050505061127b565b604051808215151515815260200191505060405180910390f35b3480156103ce57600080fd5b506103d7611338565b6040518082815260200191505060405180910390f35b3480156103f957600080fd5b506104266004803603602081101561041057600080fd5b81019080803590602001909291905050506113a4565b604051808215151515815260200191505060405180910390f35b34801561044c57600080fd5b5061048f6004803603602081101561046357600080fd5b81019080803573ffffffffffffffffffffffffffffffffffffffff169060200190929190505050611435565b60405180851515151581526020018481526020018381526020018215151515815260200194505050505060405180910390f35b3480156104ce57600080fd5b50610593600480360360c08110156104e557600080fd5b8101908080359060200190929190803573ffffffffffffffffffffffffffffffffffffffff1690602001909291908035151590602001909291908035906020019064010000000081111561053857600080fd5b82018360208201111561054a57600080fd5b8035906020019184600183028401116401000000008311171561056c57600080fd5b909192939192939080359060200190929190803560ff1690602001909291905050506115e1565b005b6105e1600480360360408110156105ab57600080fd5b81019080803573ffffffffffffffffffffffffffffffffffffffff169060200190929190803590602001909291905050506116a1565b005b3480156105ef57600080fd5b506106526004803603608081101561060657600080fd5b81019080803573ffffffffffffffffffffffffffffffffffffffff1690602001909291908035151590602001909291908035906020019092919080359060200190929190505050611917565b005b34801561066057600080fd5b5061068d6004803603602081101561067757600080fd5b810190808035906020019092919050505061198e565b60405180806020018581526020018473ffffffffffffffffffffffffffffffffffffffff1673ffffffffffffffffffffffffffffffffffffffff168152602001838152602001828103825286818151815260200191508051906020019080838360005b8381101561070b5780820151818401526020810190506106f0565b50505050905090810190601f1680156107385780820380516001836020036101000a031916815260200191505b509550505050505060405180910390f35b34801561075557600080fd5b5061075e611b8f565b6040518080602001828103825283818151815260200191508051906020019060200280838360005b838110156107a1578082015181840152602081019050610786565b505050509050019250505060405180910390f35b3480156107c157600080fd5b506107ca611c4c565b604051808215151515815260200191505060405180910390f35b3480156107f057600080fd5b5061081d6004803603602081101561080757600080fd5b8101908080359060200190929190505050611c62565b60405180806020018581526020018473ffffffffffffffffffffffffffffffffffffffff1673ffffffffffffffffffffffffffffffffffffffff168152602001838152602001828103825286818151815260200191508051906020019080838360005b8381101561089b578082015181840152602081019050610880565b50505050905090810190601f1680156108c85780820380516001836020036101000a031916815260200191505b509550505050505060405180910390f35b3480156108e557600080fd5b5061093c600480360360608110156108fc57600080fd5b81019080803573ffffffffffffffffffffffffffffffffffffffff1690602001909291908035906020019092919080359060200190929190505050611e63565b604051808215151515815260200191505060405180910390f35b34801561096257600080fd5b5061096b61237e565b6040518082815260200191505060405180910390f35b34801561098d57600080fd5b506109d0600480360360208110156109a457600080fd5b81019080803573ffffffffffffffffffffffffffffffffffffffff1690602001909291905050506123ef565b604051808215151515815260200191505060405180910390f35b3480156109f657600080fd5b50610a3060048036036040811015610a0d57600080fd5b8101908080359060200190929190803560ff1690602001909291905050506124ac565b005b600060149054906101000a900460ff16610a97576040517f08c379a0000000000000000000000000000000000000000000000000000000008152600401808060200182810382526025815260200180612d466025913960400191505060405180910390fd5b610aa18282610e41565b5050565b600060149054906101000a900460ff16610b0a576040517f08c379a0000000000000000000000000000000000000000000000000000000008152600401808060200182810382526025815260200180612d466025913960400191505060405180910390fd5b60008115610cb557600090505b6008600084815260200190815260200160002060070180549050811015610cb05760096000600860008681526020019081526020016000206007018381548110610b5d57fe5b9060005260206000200160009054906101000a900473ffffffffffffffffffffffffffffffffffffffff1673ffffffffffffffffffffffffffffffffffffffff1673ffffffffffffffffffffffffffffffffffffffff16815260200190815260200160002060000160009054906101000a900460ff1615610ca357600160096000600860008781526020019081526020016000206007018481548110610bff57fe5b9060005260206000200160009054906101000a900473ffffffffffffffffffffffffffffffffffffffff1673ffffffffffffffffffffffffffffffffffffffff1673ffffffffffffffffffffffffffffffffffffffff16815260200190815260200160002060030160006101000a81548160ff02191690831515021790555060006008600085815260200190815260200160002060070181610ca19190612c30565b505b8080600101915050610b17565b610cb6565b5b505050565b6000809054906101000a900473ffffffffffffffffffffffffffffffffffffffff1673ffffffffffffffffffffffffffffffffffffffff163373ffffffffffffffffffffffffffffffffffffffff1614610d7d576040517f08c379a000000000000000000000000000000000000000000000000000000000815260040180806020018281038252601c8152602001807f43616c6c6572206973206e6f7420636f6e7472616374206f776e65720000000081525060200191505060405180910390fd5b600060149054906101000a900460ff1615158115151415610de9576040517f08c379a0000000000000000000000000000000000000000000000000000000008152600401808060200182810382526023815260200180612d236023913960400191505060405180910390fd5b80600060146101000a81548160ff0219169083151502179055507f896889b60cdc10f9b7ae3d3e485f3a919a7bb14a6a32645578f583abfa4c66d981604051808215151515815260200191505060405180910390a150565b600060149054906101000a900460ff16610ea6576040517f08c379a0000000000000000000000000000000000000000000000000000000008152600401808060200182810382526025815260200180612d466025913960400191505060405180910390fd5b6001600460008473ffffffffffffffffffffffffffffffffffffffff1673ffffffffffffffffffffffffffffffffffffffff16815260200190815260200160002060030160006101000a81548160ff02191690831515021790555080600460008473ffffffffffffffffffffffffffffffffffffffff1673ffffffffffffffffffffffffffffffffffffffff16815260200190815260200160002060010181905550610f5d816001546125c290919063ffffffff16565b6001819055507f7ed4a34a44b58748fa243acdf28646eaa280d69b58bc1f65baaf92d032bccd003334600154604051808473ffffffffffffffffffffffffffffffffffffffff1673ffffffffffffffffffffffffffffffffffffffff168152602001838152602001828152602001935050505060405180910390a15050565b6000809054906101000a900473ffffffffffffffffffffffffffffffffffffffff1673ffffffffffffffffffffffffffffffffffffffff163373ffffffffffffffffffffffffffffffffffffffff161461109e576040517f08c379a000000000000000000000000000000000000000000000000000000000815260040180806020018281038252601c8152602001807f43616c6c6572206973206e6f7420636f6e7472616374206f776e65720000000081525060200191505060405180910390fd5b60001515600360008373ffffffffffffffffffffffffffffffffffffffff1673ffffffffffffffffffffffffffffffffffffffff16815260200190815260200160002060009054906101000a900460ff16151514611147576040517f08c379a0000000000000000000000000000000000000000000000000000000008152600401808060200182810382526021815260200180612d026021913960400191505060405180910390fd5b6001600360008373ffffffffffffffffffffffffffffffffffffffff1673ffffffffffffffffffffffffffffffffffffffff16815260200190815260200160002060006101000a81548160ff0219169083151502179055507f8983a1f3c3cb45c24c8226b5b805e3b6eb49686530b808534b2a920129eff65181604051808273ffffffffffffffffffffffffffffffffffffffff1673ffffffffffffffffffffffffffffffffffffffff16815260200191505060405180910390a150565b60046020528060005260406000206000915090508060000160009054906101000a900473ffffffffffffffffffffffffffffffffffffffff16908060000160149054906101000a900460ff16908060010154908060020154908060030160009054906101000a900460ff16908060040154905086565b60008060149054906101000a900460ff166112e1576040517f08c379a0000000000000000000000000000000000000000000000000000000008152600401808060200182810382526025815260200180612d466025913960400191505060405180910390fd5b600460008373ffffffffffffffffffffffffffffffffffffffff1673ffffffffffffffffffffffffffffffffffffffff16815260200190815260200160002060000160149054906101000a900460ff169050919050565b60008060149054906101000a900460ff1661139e576040517f08c379a0000000000000000000000000000000000000000000000000000000008152600401808060200182810382526025815260200180612d466025913960400191505060405180910390fd5b47905090565b60008060149054906101000a900460ff1661140a576040517f08c379a0000000000000000000000000000000000000000000000000000000008152600401808060200182810382526025815260200180612d466025913960400191505060405180910390fd5b6008600083815260200190815260200160002060010160009054906101000a900460ff169050919050565b600080600080600060149054906101000a900460ff166114a0576040517f08c379a0000000000000000000000000000000000000000000000000000000008152600401808060200182810382526025815260200180612d466025913960400191505060405180910390fd5b600960008673ffffffffffffffffffffffffffffffffffffffff1673ffffffffffffffffffffffffffffffffffffffff16815260200190815260200160002060000160009054906101000a900460ff169350600960008673ffffffffffffffffffffffffffffffffffffffff1673ffffffffffffffffffffffffffffffffffffffff168152602001908152602001600020600101549250600960008673ffffffffffffffffffffffffffffffffffffffff1673ffffffffffffffffffffffffffffffffffffffff168152602001908152602001600020600201549150600960008673ffffffffffffffffffffffffffffffffffffffff1673ffffffffffffffffffffffffffffffffffffffff16815260200190815260200160002060030160009054906101000a900460ff1690508383838393509350935093509193509193565b600060149054906101000a900460ff16611646576040517f08c379a0000000000000000000000000000000000000000000000000000000008152600401808060200182810382526025815260200180612d466025913960400191505060405180910390fd5b61169887878787878080601f016020809104026020016040519081016040528093929190818152602001838380828437600081840152601f19601f82011690508083019250505050505050868661264a565b50505050505050565b600060149054906101000a900460ff16611706576040517f08c379a0000000000000000000000000000000000000000000000000000000008152600401808060200182810382526025815260200180612d466025913960400191505060405180910390fd5b600960008373ffffffffffffffffffffffffffffffffffffffff1673ffffffffffffffffffffffffffffffffffffffff16815260200190815260200160002060030160009054906101000a900460ff166117c8576040517f08c379a00000000000000000000000000000000000000000000000000000000081526004018080602001828103825260178152602001807f6e6f7420656c696769626c6520666f72207061796f757400000000000000000081525060200191505060405180910390fd5b6000600960008473ffffffffffffffffffffffffffffffffffffffff1673ffffffffffffffffffffffffffffffffffffffff1681526020019081526020016000206002018190555060006008600083815260200190815260200160002060080160008473ffffffffffffffffffffffffffffffffffffffff1673ffffffffffffffffffffffffffffffffffffffff168152602001908152602001600020819055506000600960008473ffffffffffffffffffffffffffffffffffffffff1673ffffffffffffffffffffffffffffffffffffffff1681526020019081526020016000206004015490506118c58160025461276590919063ffffffff16565b6002819055508273ffffffffffffffffffffffffffffffffffffffff166108fc829081150290604051600060405180830381858888f19350505050158015611911573d6000803e3d6000fd5b50505050565b600060149054906101000a900460ff1661197c576040517f08c379a0000000000000000000000000000000000000000000000000000000008152600401808060200182810382526025815260200180612d466025913960400191505060405180910390fd5b611988848484846127af565b50505050565b606060008060008060149054906101000a900460ff166119f9576040517f08c379a0000000000000000000000000000000000000000000000000000000008152600401808060200182810382526025815260200180612d466025913960400191505060405180910390fd5b600073ffffffffffffffffffffffffffffffffffffffff166008600087815260200190815260200160002060040160009054906101000a900473ffffffffffffffffffffffffffffffffffffffff1673ffffffffffffffffffffffffffffffffffffffff161415611a6957600080fd5b6008600086815260200190815260200160002060000160086000878152602001908152602001600020600201546008600088815260200190815260200160002060040160009054906101000a900473ffffffffffffffffffffffffffffffffffffffff166008600089815260200190815260200160002060050154838054600181600116156101000203166002900480601f016020809104026020016040519081016040528092919081815260200182805460018160011615610100020316600290048015611b795780601f10611b4e57610100808354040283529160200191611b79565b820191906000526020600020905b815481529060010190602001808311611b5c57829003601f168201915b5050505050935093509350935093509193509193565b6060600060149054906101000a900460ff16611bf6576040517f08c379a0000000000000000000000000000000000000000000000000000000008152600401808060200182810382526025815260200180612d466025913960400191505060405180910390fd5b600a805480602002602001604051908101604052809291908181526020018280548015611c4257602002820191906000526020600020905b815481526020019060010190808311611c2e575b5050505050905090565b60008060149054906101000a900460ff16905090565b606060008060008060149054906101000a900460ff16611ccd576040517f08c379a0000000000000000000000000000000000000000000000000000000008152600401808060200182810382526025815260200180612d466025913960400191505060405180910390fd5b600073ffffffffffffffffffffffffffffffffffffffff166008600087815260200190815260200160002060040160009054906101000a900473ffffffffffffffffffffffffffffffffffffffff1673ffffffffffffffffffffffffffffffffffffffff161415611d3d57600080fd5b6008600086815260200190815260200160002060000160086000878152602001908152602001600020600201546008600088815260200190815260200160002060040160009054906101000a900473ffffffffffffffffffffffffffffffffffffffff166008600089815260200190815260200160002060050154838054600181600116156101000203166002900480601f016020809104026020016040519081016040528092919081815260200182805460018160011615610100020316600290048015611e4d5780601f10611e2257610100808354040283529160200191611e4d565b820191906000526020600020905b815481529060010190602001808311611e3057829003601f168201915b5050505050935093509350935093509193509193565b60008060149054906101000a900460ff16611ec9576040517f08c379a0000000000000000000000000000000000000000000000000000000008152600401808060200182810382526025815260200180612d466025913960400191505060405180910390fd5b60001515600960003373ffffffffffffffffffffffffffffffffffffffff1673ffffffffffffffffffffffffffffffffffffffff16815260200190815260200160002060000160009054906101000a900460ff16151514611f92576040517f08c379a000000000000000000000000000000000000000000000000000000000815260040180806020018281038252600f8152602001807f43616c6c6572206861732070616964000000000000000000000000000000000081525060200191505060405180910390fd5b81600115156008600083815260200190815260200160002060010160009054906101000a900460ff16151514612030576040517f08c379a000000000000000000000000000000000000000000000000000000000815260040180806020018281038252601e8152602001807f666c6967687420686173206e6f74206265656e2072656769737465726564000081525060200191505060405180910390fd5b6001600960008773ffffffffffffffffffffffffffffffffffffffff1673ffffffffffffffffffffffffffffffffffffffff16815260200190815260200160002060000160006101000a81548160ff02191690831515021790555083600960008773ffffffffffffffffffffffffffffffffffffffff1673ffffffffffffffffffffffffffffffffffffffff1681526020019081526020016000206001018190555082600960008773ffffffffffffffffffffffffffffffffffffffff1673ffffffffffffffffffffffffffffffffffffffff168152602001908152602001600020600201819055506000600960008773ffffffffffffffffffffffffffffffffffffffff1673ffffffffffffffffffffffffffffffffffffffff16815260200190815260200160002060030160006101000a81548160ff021916908315150217905550600860008481526020019081526020016000206007018590806001815401808255809150509060018203906000526020600020016000909192909190916101000a81548173ffffffffffffffffffffffffffffffffffffffff021916908373ffffffffffffffffffffffffffffffffffffffff16021790555050836008600085815260200190815260200160002060080160008773ffffffffffffffffffffffffffffffffffffffff1673ffffffffffffffffffffffffffffffffffffffff168152602001908152602001600020819055508361225b600286612a6090919063ffffffff16565b01600960008773ffffffffffffffffffffffffffffffffffffffff1673ffffffffffffffffffffffffffffffffffffffff168152602001908152602001600020600401819055506122f9600960008773ffffffffffffffffffffffffffffffffffffffff1673ffffffffffffffffffffffffffffffffffffffff168152602001908152602001600020600401546002546125c290919063ffffffff16565b6002819055507f7ed4a34a44b58748fa243acdf28646eaa280d69b58bc1f65baaf92d032bccd00338547604051808473ffffffffffffffffffffffffffffffffffffffff1673ffffffffffffffffffffffffffffffffffffffff168152602001838152602001828152602001935050505060405180910390a160019150509392505050565b60008060149054906101000a900460ff166123e4576040517f08c379a0000000000000000000000000000000000000000000000000000000008152600401808060200182810382526025815260200180612d466025913960400191505060405180910390fd5b600680549050905090565b60008060149054906101000a900460ff16612455576040517f08c379a0000000000000000000000000000000000000000000000000000000008152600401808060200182810382526025815260200180612d466025913960400191505060405180910390fd5b600460008373ffffffffffffffffffffffffffffffffffffffff1673ffffffffffffffffffffffffffffffffffffffff16815260200190815260200160002060030160009054906101000a900460ff169050919050565b600060149054906101000a900460ff16612511576040517f08c379a0000000000000000000000000000000000000000000000000000000008152600401808060200182810382526025815260200180612d466025913960400191505060405180910390fd5b60086000838152602001908152602001600020600501548160ff1614156125a0576040517f08c379a00000000000000000000000000000000000000000000000000000000081526004018080602001828103825260178152602001807f53746174757320636f646520616c72656164792073657400000000000000000081525060200191505060405180910390fd5b8060ff1660086000848152602001908152602001600020600501819055505050565b600080828401905083811015612640576040517f08c379a000000000000000000000000000000000000000000000000000000000815260040180806020018281038252601b8152602001807f536166654d6174683a206164646974696f6e206f766572666c6f77000000000081525060200191505060405180910390fd5b8091505092915050565b82600860008881526020019081526020016000206000019080519060200190612674929190612c5c565b50816008600088815260200190815260200160002060020181905550846008600088815260200190815260200160002060040160006101000a81548173ffffffffffffffffffffffffffffffffffffffff021916908373ffffffffffffffffffffffffffffffffffffffff1602179055508060ff166008600088815260200190815260200160002060050181905550836008600088815260200190815260200160002060010160006101000a81548160ff021916908315150217905550600a869080600181540180825580915050906001820390600052602060002001600090919290919091505550505050505050565b60006127a783836040518060400160405280601e81526020017f536166654d6174683a207375627472616374696f6e206f766572666c6f770000815250612aaa565b905092915050565b600060149054906101000a900460ff16612814576040517f08c379a0000000000000000000000000000000000000000000000000000000008152600401808060200182810382526025815260200180612d466025913960400191505060405180910390fd5b6006600554908060018154018082558091505090600182039060005260206000200160009091929091909150555060016005540160058190555083600460008673ffffffffffffffffffffffffffffffffffffffff1673ffffffffffffffffffffffffffffffffffffffff16815260200190815260200160002060000160006101000a81548173ffffffffffffffffffffffffffffffffffffffff021916908373ffffffffffffffffffffffffffffffffffffffff16021790555082600460008673ffffffffffffffffffffffffffffffffffffffff1673ffffffffffffffffffffffffffffffffffffffff16815260200190815260200160002060000160146101000a81548160ff0219169083151502179055506000600460008673ffffffffffffffffffffffffffffffffffffffff1673ffffffffffffffffffffffffffffffffffffffff1681526020019081526020016000206001018190555081600460008673ffffffffffffffffffffffffffffffffffffffff1673ffffffffffffffffffffffffffffffffffffffff168152602001908152602001600020600201819055506000600460008673ffffffffffffffffffffffffffffffffffffffff1673ffffffffffffffffffffffffffffffffffffffff16815260200190815260200160002060030160006101000a81548160ff02191690831515021790555080600460008673ffffffffffffffffffffffffffffffffffffffff1673ffffffffffffffffffffffffffffffffffffffff1681526020019081526020016000206004018190555050505050565b6000612aa283836040518060400160405280601a81526020017f536166654d6174683a206469766973696f6e206279207a65726f000000000000815250612b6a565b905092915050565b6000838311158290612b57576040517f08c379a00000000000000000000000000000000000000000000000000000000081526004018080602001828103825283818151815260200191508051906020019080838360005b83811015612b1c578082015181840152602081019050612b01565b50505050905090810190601f168015612b495780820380516001836020036101000a031916815260200191505b509250505060405180910390fd5b5060008385039050809150509392505050565b60008083118290612c16576040517f08c379a00000000000000000000000000000000000000000000000000000000081526004018080602001828103825283818151815260200191508051906020019080838360005b83811015612bdb578082015181840152602081019050612bc0565b50505050905090810190601f168015612c085780820380516001836020036101000a031916815260200191505b509250505060405180910390fd5b506000838581612c2257fe5b049050809150509392505050565b815481835581811115612c5757818360005260206000209182019101612c569190612cdc565b5b505050565b828054600181600116156101000203166002900490600052602060002090601f016020900481019282601f10612c9d57805160ff1916838001178555612ccb565b82800160010185558215612ccb579182015b82811115612cca578251825591602001919060010190612caf565b5b509050612cd89190612cdc565b5090565b612cfe91905b80821115612cfa576000816000905550600101612ce2565b5090565b9056fe416464726573732068617320616c7265616479206265207265676973746572656443616e2774207365742073616d65207374617465206d6f7265207468616e206f6e6365436f6e74726163742069732063757272656e746c79206e6f74206f7065726174696f6e616ca265627a7a72315820a1bd002f2f2ca5ebf54bd27606f9f2225d60a9d71b03fa8d17595918817bb9e964736f6c63430005110032436f6e74726163742069732063757272656e746c79206e6f74206f7065726174696f6e616c",
  "source": "pragma solidity ^0.5.16;\n\nimport \"../node_modules/openzeppelin-solidity/contracts/math/SafeMath.sol\";\n\ncontract FlightSuretyData {\n    using SafeMath for uint256;\n\n    /********************************************************************************************/\n    /*                                       DATA VARIABLES                                     */\n    /********************************************************************************************/\n\n    address private contractOwner;                                      // Account used to deploy contract\n    bool private operational = true;                                    // Blocks all state changes throughout the contract if false\n    uint256 private airlineBalance = 0 ether;                             // balance for funds from airlines registration\n    uint256 private insuranceBalance = 0 ether;                           // balance for insurance\n    mapping(address => bool) private authorizedCallers;\n\n    /********************************************************************************************/\n    /*                                       EVENT DEFINITIONS                                  */\n    /********************************************************************************************/\n\n\n    /**\n    * @dev Constructor\n    *      The deploying account becomes contractOwner\n    */\n\n    struct Airline {\n        address airlineAddress;\n        bool isRegistered;\n        uint256 feeSettled;\n        uint256 registeredInd;\n        bool isFunded;\n        //mapping(address => bool) isVoted;\n        uint totalVotes;\n    }\n\n    mapping(address => Airline) public theregisteredAirlines;\n\n    //Flight struct\n\n    struct Flight {\n        string flightName;\n        bool isRegistered;\n        uint256 flightTime;\n        uint256 registeredInd;\n        address airlineAddress;\n        uint256 statusCode;\n        uint256 newTimestamp;\n        address[] protectedClient;\n        mapping(address => uint256) protectedClientAddress;\n    }\n\n    struct Client {\n        bool isPaid;\n        uint256 paidValue;\n        bytes32 flightId;\n        bool payout;\n        uint256 insurance;\n    }\n\n    uint256 indicator;\n    uint256[] private airlines;\n    mapping(address => bool) private _airlinePaid;\n\n    //string mapping flight\n\n    mapping(bytes32 => Flight) private MappingofFlight;\n\n    //mapping of client\n\n    mapping(address => Client) private clients;\n\n    bytes32[] private flightsArray;\n\n\n    //EVENT\n\n    event AirlineInfo();\n    event PaidAmount(address airlineAddress, uint256 payment, uint256 balance);\n    event ContractAuthorized(address _contractId);\n    event OperationalStatusChanged(bool _state);\n\n    /**\n    * @dev Constructor\n    *      The deploying account becomes contractOwner\n    */\n\n    constructor(address airlineAddress) public payable {\n        contractOwner = msg.sender;\n        _theregisteredAirlines(airlineAddress, true, 0, 0);\n        //_payFeeAirline(airline, msg.value);\n        indicator = 0;\n    }\n\n\n    /********************************************************************************************/\n    /*                                       FUNCTION MODIFIERS                                 */\n    /********************************************************************************************/\n\n    // Modifiers help avoid duplication of code. They are typically used to validate something\n    // before a function is allowed to be executed.\n\n    /**\n    * @dev Modifier that requires the \"operational\" boolean variable to be \"true\"\n    *      This is used on all state changing functions to pause the contract in\n    *      the event there is an issue that needs to be fixed\n    */\n\n    modifier requireIsOperational() {\n        require(operational, \"Contract is currently not operational\");\n        _;  // All modifiers require an \"_\" which indicates where the function body will be added\n    }\n\n    /**\n    * @dev Modifier that requires the \"ContractOwner\" account to be the function caller\n    */\n\n    modifier requireContractOwner() {\n        require(msg.sender == contractOwner, \"Caller is not contract owner\");\n        _;\n    }\n\n    /**\n    * @dev Modifier that requires the \"ContractOwner\" account to be the function caller\n    */\n\n    modifier isAirlineRegistered() {\n        require(theregisteredAirlines[msg.sender].isRegistered == true, \"Caller is not contract owner\");\n        _;\n    }\n\n    modifier isClientPaid() {\n        require(clients[msg.sender].isPaid == false, \"Caller has paid\");\n        _;\n    }\n\n    modifier isFlightregistered(bytes32 flight) {\n        require(MappingofFlight[flight].isRegistered == true, \"flight has not been registered\");\n        _;\n    }\n\n    /********************************************************************************************/\n    /*                                       UTILITY FUNCTIONS                                  */\n    /********************************************************************************************/\n\n    function authorizeCaller(address contractAddress) external requireContractOwner{\n        require(authorizedCallers[contractAddress] == false, \"Address has already be registered\");\n        authorizedCallers[contractAddress] = true;\n        emit ContractAuthorized(contractAddress);\n    }\n\n    /**\n    * @dev Get operating status of contract\n    *\n    * @return A bool that is the current operating status\n    */\n\n    function isOperational() public view returns(bool) {\n        return operational;\n    }\n\n\n    /**\n    * @dev Sets contract operations on/off\n    *\n    * When operational mode is disabled, all write transactions except for this one will fail\n    */\n\n    function setOperatingStatus (bool mode) external requireContractOwner {\n        require(mode != operational, \"Can't set same state more than once\");\n        operational = mode;\n        emit OperationalStatusChanged(mode);\n    }\n\n    /********************************************************************************************/\n    /*                                     SMART CONTRACT FUNCTIONS                             */\n    /********************************************************************************************/\n\n\n   /**\n    * @dev Add an airline to the registration queue\n    *      Can only be called from FlightSuretyApp contract\n    *\n    */\n\n    //requireIsOperational isAirlineRegistered\n\n    function inputAirlines(address airlineAddress, bool isRegistered, uint256 registeredInd, uint256 totalVotes) external requireIsOperational {\n        _theregisteredAirlines(airlineAddress, isRegistered, registeredInd, totalVotes);\n    }\n\n    /**\n    * @dev Add an airline to the registration queue\n    *      Can only be called from FlightSuretyApp contract\n    *\n    */\n\n    function _theregisteredAirlines(address _airlines, bool _isregistered, uint256 _registeredInd, uint256 _totalVotes) private requireIsOperational {\n\n        airlines.push(indicator);\n        indicator = indicator + 1;\n\n        theregisteredAirlines[_airlines].airlineAddress = _airlines;\n        theregisteredAirlines[_airlines].isRegistered = _isregistered;\n        theregisteredAirlines[_airlines].feeSettled = 0;\n        theregisteredAirlines[_airlines].registeredInd = _registeredInd;\n        theregisteredAirlines[_airlines].isFunded = false;\n        theregisteredAirlines[_airlines].totalVotes = _totalVotes;\n\n    }\n\n    /**\n    * @dev check if airline is registered\n    *      Can only be called from FlightSuretyApp contract\n    *\n    */\n\n    function istheAirlineRegistered(address isAirline) external view requireIsOperational returns(bool) {\n        return theregisteredAirlines[isAirline].isRegistered;\n    }\n\n    /**\n    * @dev airline is paid by the airline address\n    *      Can only be called from FlightSuretyApp contract\n    *\n    */\n\n    //requireIsOperational isAirlineRegistered\n\n    function payMinFee(address airlineAddress, uint256 fee) external payable requireIsOperational {\n        _payMinFee(airlineAddress, fee);\n    }\n\n    /**\n    * @dev airline is paid by the airline address\n    *      Can only be called from FlightSuretyApp contract\n    *\n    */\n\n    function _payMinFee (address _airlines, uint256 _fee) public payable requireIsOperational {\n        theregisteredAirlines[_airlines].isFunded = true;\n        theregisteredAirlines[_airlines].feeSettled = _fee;\n\n        //contributions[msg.sender] += msg.value;\n        airlineBalance = airlineBalance.add(_fee);\n\n\n        emit PaidAmount(msg.sender, msg.value, airlineBalance);\n    }\n\n    /**\n    * @dev getting remainder of funds held in this address\n    *\n    */\n\n    function receiveRemainder() public view requireIsOperational  returns (uint256) {\n        return address(this).balance;\n    }\n\n    /**\n    * @dev check if the airline is funded\n    *\n    *\n    */\n\n    function isAirlineFunded (address _airlines) public requireIsOperational returns (bool) {\n        return theregisteredAirlines[_airlines].isFunded;\n    }\n\n    /**\n    * @dev check the amount of airlines registered\n    *\n    *\n    */\n\n    function amountofAirlines () public requireIsOperational returns (uint256) {\n        return airlines.length;\n    }\n\n\n    /**\n    * @dev add a flight\n    *\n    */\n\n    function registerFlight(bytes32 key, address airlineAddress, bool status, string calldata flightName, uint256 timestamp, uint8 statusCode) external requireIsOperational {\n        _registerFlight(key, airlineAddress, status, flightName, timestamp, statusCode);\n    }\n\n    /**\n    * @dev add a flight\n    *\n    */\n\n    function _registerFlight(bytes32 _key, address _airlines, bool _status, string memory _flightName, uint256 _timestamp, uint8 _statusCode) private {\n\n        MappingofFlight[_key].flightName = _flightName;\n        MappingofFlight[_key].flightTime = _timestamp;\n        MappingofFlight[_key].airlineAddress = _airlines;\n        MappingofFlight[_key].statusCode = _statusCode;\n        MappingofFlight[_key].isRegistered = _status;\n        flightsArray.push(_key);\n    }\n\n    /**\n    * @dev receive the flight registration status\n    *\n    */\n\n    function theregisteredFlight (bytes32 keyFlight) external requireIsOperational returns (bool status) {\n        return (MappingofFlight[keyFlight].isRegistered);\n    }\n\n    function receiveFlights() external view requireIsOperational returns (bytes32[] memory ) {\n        return flightsArray;\n    }\n\n    /**\n    * @dev fetching the flight data\n    *\n    */\n\n    function fetchFlightData (bytes32 key) external view requireIsOperational returns (string memory, uint256, address, uint256) {\n        require(MappingofFlight[key].airlineAddress != address(0));\n\n        return (MappingofFlight[key].flightName, MappingofFlight[key].flightTime, MappingofFlight[key].airlineAddress, MappingofFlight[key].statusCode);\n    }\n\n    /**\n    * @dev set flight the status\n    *\n    */\n\n    function setFlightStatus (bytes32 key, uint8 status) external requireIsOperational {\n        require(status != MappingofFlight[key].statusCode, \"Status code already set\");\n        MappingofFlight[key].statusCode = status;\n    }\n\n    /**\n    * @dev Initial funding for the insurance. Unless there are too many delayed flights\n    *      resulting in insurance payouts\n    *\n    *\n    */\n\n    function fund (address payable clientAddress, uint pay, bytes32 flightId) public requireIsOperational isClientPaid isFlightregistered(flightId) returns (bool success) {\n\n        clients[clientAddress].isPaid = true;\n        clients[clientAddress].paidValue = pay;\n        clients[clientAddress].flightId = flightId;\n        clients[clientAddress].payout = false;\n        MappingofFlight[flightId].protectedClient.push(clientAddress);\n        MappingofFlight[flightId].protectedClientAddress[clientAddress] = pay;\n        clients[clientAddress].insurance = pay.div(2) + pay;\n\n        insuranceBalance = insuranceBalance.add(clients[clientAddress].insurance);\n\n        emit PaidAmount(msg.sender, pay, address(this).balance);\n\n        return true;\n\n    }\n\n    function clientInfo (address _clientAddress) public view requireIsOperational returns (bool paid, uint256 payment, bytes32 flightId, bool payout) {\n        paid = clients[_clientAddress].isPaid;\n        payment = clients[_clientAddress].paidValue;\n        flightId = clients[_clientAddress].flightId;\n        payout = clients[_clientAddress].payout;\n\n        return (paid, payment, flightId, payout);\n    }\n\n    /**\n     *  @dev payout funds to clients\n     *\n    */\n\n    function payout (address payable clientAddress, bytes32 flightkey) external payable requireIsOperational {\n        require(clients[clientAddress].payout, \"not eligible for payout\");\n\n        //Passenger storage passenger = passengers[passengerAddress];\n\n        //passenger.PaidAmount = 0;\n        clients[clientAddress].flightId = \"\";\n        MappingofFlight[flightkey].protectedClientAddress[clientAddress] = 0;\n        uint256 pay = clients[clientAddress].insurance;\n        insuranceBalance = insuranceBalance.sub(pay);\n\n        clientAddress.transfer(pay);\n\n    }\n\n     /**\n     *  @dev processing the flight\n     *\n    */\n\n    function processFlightStatus (bytes32 flightkey, bool isLate) external requireIsOperational {\n        uint256 client;\n        //uint256 payAmount;\n\n        if (isLate) {\n            for (client = 0; client < MappingofFlight[flightkey].protectedClient.length; client++) {\n                if(clients[MappingofFlight[flightkey].protectedClient[client]].isPaid) {\n\n                    //payAmount = passengers[flightsMapping[flightkey].insuredPassengers[passenger]].paidAmount;\n\n                    clients[MappingofFlight[flightkey].protectedClient[client]].payout = true;\n\n                    //passengers[flightsMapping[flightkey].insuredPassengers[passenger]].paidAmount= 0;\n\n                    //passengers[flightsMapping[flightkey].insuredPassengers[passenger]].insuranceAmount = payout*1.5;\n\n                    //insuranceFunds = insuranceFunds.sub(insuranceAmount*1.5);\n                    MappingofFlight[flightkey].protectedClient.length = 0;\n                }\n            }\n        } else{\n\n            //need to understasd what to do if it is not late\n\n        }\n    }\n\n\n    function getFlightData (bytes32 key) external view requireIsOperational returns(string memory, uint256, address, uint256) {\n         require(MappingofFlight[key].airlineAddress != address(0));\n        return (MappingofFlight[key].flightName, MappingofFlight[key].flightTime, MappingofFlight[key].airlineAddress, MappingofFlight[key].statusCode);\n    }\n\n    /**\n    * @dev fallback function for funding contract\n    *\n    */\n\n    function() external payable {\n\n    }\n\n\n\n}\n",
  "sourcePath": "/Users/aprilnixon-henry/Downloads/FlightSuretyDapp-master-2/contracts/FlightSuretyData.sol",
  "compiler": {
    "name": "solc",
    "version": "0.5.17+commit.d19bba13.Emscripten.clang"
  },
  "schemaVersion": "3.3.4",
  "updatedAt": "2022-10-20T21:58:36.992Z",
  "networkType": "ethereum",
  "devdoc": {
    "methods": {
      "_payMinFee(address,uint256)": {
        "details": "airline is paid by the airline address     Can only be called from FlightSuretyApp contract    "
      },
      "amountofAirlines()": {
        "details": "check the amount of airlines registered    *"
      },
      "constructor": {
        "details": "Constructor     The deploying account becomes contractOwner"
      },
      "fetchFlightData(bytes32)": {
        "details": "fetching the flight data    "
      },
      "fund(address,uint256,bytes32)": {
        "details": "Initial funding for the insurance. Unless there are too many delayed flights     resulting in insurance payouts    *"
      },
      "inputAirlines(address,bool,uint256,uint256)": {
        "details": "Add an airline to the registration queue     Can only be called from FlightSuretyApp contract    "
      },
      "isAirlineFunded(address)": {
        "details": "check if the airline is funded    *"
      },
      "isOperational()": {
        "details": "Get operating status of contract",
        "return": "A bool that is the current operating status"
      },
      "istheAirlineRegistered(address)": {
        "details": "check if airline is registered     Can only be called from FlightSuretyApp contract    "
      },
      "payMinFee(address,uint256)": {
        "details": "airline is paid by the airline address     Can only be called from FlightSuretyApp contract    "
      },
      "payout(address,bytes32)": {
        "details": "payout funds to clients    "
      },
      "processFlightStatus(bytes32,bool)": {
        "details": "processing the flight    "
      },
      "receiveRemainder()": {
        "details": "getting remainder of funds held in this address    "
      },
      "registerFlight(bytes32,address,bool,string,uint256,uint8)": {
        "details": "add a flight    "
      },
      "setFlightStatus(bytes32,uint8)": {
        "details": "set flight the status    "
      },
      "setOperatingStatus(bool)": {
        "details": "Sets contract operations on/off    * When operational mode is disabled, all write transactions except for this one will fail"
      },
      "theregisteredFlight(bytes32)": {
        "details": "receive the flight registration status    "
      }
    }
  },
  "userdoc": {
    "methods": {
      "authorizeCaller(address)": {
        "notice": "*****************************************************************************************"
      }
    }
  }
}